:03000000020006F5
:06000600758109020016DD
:100290007580FF00000000C2A5D2A6D2A7E580208D
:0502A000E7FBC2A722EC
:10024E0012029000000000C2A5C2A68F80D2A700A5
:06025E00000000C2A7220F
:1002640012029000000000D2A5C2A68F80D2A7007F
:06027400000000C2A722F9
:1002A5007F3812024E7F0C12024E7F0612024E7FDD
:0402B5000102024EF2
:1002B900ED7004AE078004EF2440FEEE4480FF0297
:0202C900024EE3
:10027A001202B9120235FF600C120264740129F9E4
:06028A00E43AFA80EE22C6
:100083007275616E6A69616E6675776569006B6129
:100093006E6D656E676F7566757765690073686108
:1000A3006E676469616E6675776569006469646922
:1000B300616E7961667577656900646973756D6FE3
:1000C300736869006B6F6E677869616E6D6F7368D3
:1000D30069006469616F6469616E6D6F736869005B
:0600E3006572726F7200ED
:10001600D2B2D2B3D288D28AD2A8D2AAD2BAC2B81F
:10002600D2AFE4F594F593F596F595AF87EF643086
:1000360070031201C8AF87EF642070031201E5E474
:10004600F508F509E508701BE50914600C14600E47
:100056002402700F12021C800D1201A880081202E1
:100066000280031202CB1201730509E5097002052D
:0C00760008C39403E5086480948040C82F
:01008200225B
:030003000200E90F
:1000E900C0E0C0F0C083C082C0D075D000C000C0DD
:1000F90001C002C003C004C005C006C007120290B7
:100109001202A57BFF7A007983E4FDFF12027A12BD
:10011900017375870075C720D007D006D005D004B4
:10012900D003D002D001D000D0D0D082D083D0F07B
:03013900D0E032E1
:0300130002013CAB
:10013C00C0E0C0F0C083C082C0D075D000C000C089
:10014C0001C002C003C004C005C006C00712029063
:10015C001202A57BFF7A007991E4FDFF12027A75F9
:07016C00870043C12A80FE59
:1001C8001202901202A57BFF7A0079A0E4FDFF12CB
:0D01D800027A7DE87C03120177E4F58722AE
:1001E5001202901202A57BFF7A0079AFE4FDFF129F
:0D01F500027A7DE87C03120177E4F5872291
:10021C007597C5C2C6C2C71202901202A57BFF7A9F
:09022C000079BDE4FDFF02027A35
:10020200C2C6C2C71202901202A57BFF7A0079C74A
:0A021200E4FDFF12027A4387012287
:1001A80075AAFF75AB80C2C6C2C71202901202A51B
:1001B8007BFF7A0079D5E4FDFF12027A4387022299
:1002CB001202901202A57BFF7A0079E3E4FDFF0294
:0202DB00027AA5
:080173007D647C007FE87E033F
:10017B00E4FBFAC3EB9FEE6480F8EA648098501CB2
:10018B00900000C3E5829DEC6480F8E58364809861
:0C019B005003A380EE0BBB00010A80D7CC
:0101A7002235
:10023500BB010689828A83E0225002E722BBFE02C7
:09024500E32289828A83E49322FA
:00000001FF
