:10008F00082000003E4141413E0008287FBFDFEFBE
:10009F00F7FBFDFE0808000808080808080008100C
:1000AF00003E2226300E7E00081800003E414141DE
:0200BF003E0001
:0B010F00EF1FAC0670011E4C70F622C2
:1000E900C2B6C2B5E4FEEFC4131313540124FF9240
:1000F900B4EF25E0FFD2B60000C2B60EBE08E7D2C3
:05010900B50000C2B5C5
:01010E0022CE
:1000C20075807FE4FD74282DF8E6F58074102DF814
:1000D200E6FF1200E97F647E0012010FE4FF1200C6
:0700E200E90DBD08E080D923
:03000000020003F8
:0C000300787FE4F6D8FD75812F02004ADA
:10000F000200C2E493A3F8E493A34003F68001F245
:10001F0008DFF48029E493A3F85407240CC8C333F2
:10002F00C4540F4420C8834004F456800146F6DFC1
:10003F00E4800B010204081020408090008FE47EC2
:10004F00019360BCA3FF543F30E509541FFEE493B6
:10005F00A360010ECF54C025E060A840B8E493A37D
:10006F00FAE493A3F8E493A3C8C582C8CAC583CAA8
:10007F00F0A3C8C582C8CAC583CADFE9DEE780BE60
:0100C100003E
:00000001FF
